{
	"sample/contracts/custom/mainnet_ens.sol": {
		"MyResolver": {
			"abi": [
				{
					"inputs": [],
					"name": "resolve",
					"outputs": [
						{
							"internalType": "address",
							"name": "",
							"type": "address"
						}
					],
					"stateMutability": "view",
					"type": "function"
				}
			],
			"devdoc": {
				"kind": "dev",
				"methods": {},
				"version": 1
			},
			"evm": {
				"assembly": "    /* \"sample/contracts/custom/mainnet_ens.sol\":303:678  contract MyResolver {... */\n  mstore(0x40, 0x80)\n    /* \"sample/contracts/custom/mainnet_ens.sol\":420:462  0x00000000000C2E074eC69A0dFb2997BA6C7d2e1e */\n  0x0c2e074ec69a0dfb2997ba6c7d2e1e\n    /* \"sample/contracts/custom/mainnet_ens.sol\":406:463  ENS ens = ENS(0x00000000000C2E074eC69A0dFb2997BA6C7d2e1e) */\n  0x00\n  dup1\n  0x0100\n  exp\n  dup2\n  sload\n  dup2\n  0xffffffffffffffffffffffffffffffffffffffff\n  mul\n  not\n  and\n  swap1\n  dup4\n  0xffffffffffffffffffffffffffffffffffffffff\n  and\n  mul\n  or\n  swap1\n  sstore\n  pop\n    /* \"sample/contracts/custom/mainnet_ens.sol\":303:678  contract MyResolver {... */\n  callvalue\n  dup1\n  iszero\n  tag_1\n  jumpi\n  0x00\n  dup1\n  revert\ntag_1:\n  pop\n  dataSize(sub_0)\n  dup1\n  dataOffset(sub_0)\n  0x00\n  codecopy\n  0x00\n  return\nstop\n\nsub_0: assembly {\n        /* \"sample/contracts/custom/mainnet_ens.sol\":303:678  contract MyResolver {... */\n      mstore(0x40, 0x80)\n      callvalue\n      dup1\n      iszero\n      tag_1\n      jumpi\n      0x00\n      dup1\n      revert\n    tag_1:\n      pop\n      jumpi(tag_2, lt(calldatasize, 0x04))\n      shr(0xe0, calldataload(0x00))\n      dup1\n      0x2810e1d6\n      eq\n      tag_3\n      jumpi\n    tag_2:\n      0x00\n      dup1\n      revert\n        /* \"sample/contracts/custom/mainnet_ens.sol\":469:676  function resolve() public view returns(address) {... */\n    tag_3:\n      tag_4\n      tag_5\n      jump\t// in\n    tag_4:\n      mload(0x40)\n      tag_6\n      swap2\n      swap1\n      tag_7\n      jump\t// in\n    tag_6:\n      mload(0x40)\n      dup1\n      swap2\n      sub\n      swap1\n      return\n    tag_5:\n        /* \"sample/contracts/custom/mainnet_ens.sol\":508:515  address */\n      0x00\n        /* \"sample/contracts/custom/mainnet_ens.sol\":529:541  bytes32 node */\n      dup1\n        /* \"sample/contracts/custom/mainnet_ens.sol\":545:585  NameEncoder.dnsEncodeName(\"vitalik.eth\") */\n      tag_9\n      mload(0x40)\n      dup1\n      0x40\n      add\n      0x40\n      mstore\n      dup1\n      0x0b\n      dup2\n      mstore\n      0x20\n      add\n      0x766974616c696b2e657468000000000000000000000000000000000000000000\n      dup2\n      mstore\n      pop\n        /* \"sample/contracts/custom/mainnet_ens.sol\":545:570  NameEncoder.dnsEncodeName */\n      tag_10\n        /* \"sample/contracts/custom/mainnet_ens.sol\":545:585  NameEncoder.dnsEncodeName(\"vitalik.eth\") */\n      jump\t// in\n    tag_9:\n        /* \"sample/contracts/custom/mainnet_ens.sol\":527:585  (,bytes32 node) = NameEncoder.dnsEncodeName(\"vitalik.eth\") */\n      swap2\n      pop\n      pop\n        /* \"sample/contracts/custom/mainnet_ens.sol\":595:612  Resolver resolver */\n      0x00\n        /* \"sample/contracts/custom/mainnet_ens.sol\":615:618  ens */\n      dup1\n      0x00\n      swap1\n      sload\n      swap1\n      0x0100\n      exp\n      swap1\n      div\n      0xffffffffffffffffffffffffffffffffffffffff\n      and\n        /* \"sample/contracts/custom/mainnet_ens.sol\":615:627  ens.resolver */\n      0xffffffffffffffffffffffffffffffffffffffff\n      and\n      0x0178b8bf\n        /* \"sample/contracts/custom/mainnet_ens.sol\":628:632  node */\n      dup4\n        /* \"sample/contracts/custom/mainnet_ens.sol\":615:633  ens.resolver(node) */\n      mload(0x40)\n      dup3\n      0xffffffff\n      and\n      0xe0\n      shl\n      dup2\n      mstore\n      0x04\n      add\n      tag_11\n      swap2\n      swap1\n      tag_12\n      jump\t// in\n    tag_11:\n      0x20\n      mload(0x40)\n      dup1\n      dup4\n      sub\n      dup2\n      dup7\n      gas\n      staticcall\n      iszero\n      dup1\n      iszero\n      tag_14\n      jumpi\n      returndatasize\n      0x00\n      dup1\n      returndatacopy\n      revert(0x00, returndatasize)\n    tag_14:\n      pop\n      pop\n      pop\n      pop\n      mload(0x40)\n      returndatasize\n      not(0x1f)\n      0x1f\n      dup3\n      add\n      and\n      dup3\n      add\n      dup1\n      0x40\n      mstore\n      pop\n      dup2\n      add\n      swap1\n      tag_15\n      swap2\n      swap1\n      tag_16\n      jump\t// in\n    tag_15:\n        /* \"sample/contracts/custom/mainnet_ens.sol\":595:633  Resolver resolver = ens.resolver(node) */\n      swap1\n      pop\n        /* \"sample/contracts/custom/mainnet_ens.sol\":650:658  resolver */\n      dup1\n        /* \"sample/contracts/custom/mainnet_ens.sol\":650:663  resolver.addr */\n      0xffffffffffffffffffffffffffffffffffffffff\n      and\n      0x3b3b57de\n        /* \"sample/contracts/custom/mainnet_ens.sol\":664:668  node */\n      dup4\n        /* \"sample/contracts/custom/mainnet_ens.sol\":650:669  resolver.addr(node) */\n      mload(0x40)\n      dup3\n      0xffffffff\n      and\n      0xe0\n      shl\n      dup2\n      mstore\n      0x04\n      add\n      tag_17\n      swap2\n      swap1\n      tag_12\n      jump\t// in\n    tag_17:\n      0x20\n      mload(0x40)\n      dup1\n      dup4\n      sub\n      dup2\n      dup7\n      gas\n      staticcall\n      iszero\n      dup1\n      iszero\n      tag_19\n      jumpi\n      returndatasize\n      0x00\n      dup1\n      returndatacopy\n      revert(0x00, returndatasize)\n    tag_19:\n      pop\n      pop\n      pop\n      pop\n      mload(0x40)\n      returndatasize\n      not(0x1f)\n      0x1f\n      dup3\n      add\n      and\n      dup3\n      add\n      dup1\n      0x40\n      mstore\n      pop\n      dup2\n      add\n      swap1\n      tag_20\n      swap2\n      swap1\n      tag_21\n      jump\t// in\n    tag_20:\n        /* \"sample/contracts/custom/mainnet_ens.sol\":643:669  return resolver.addr(node) */\n      swap3\n      pop\n      pop\n      pop\n        /* \"sample/contracts/custom/mainnet_ens.sol\":469:676  function resolve() public view returns(address) {... */\n      swap1\n      jump\t// out\n        /* \"https://github.com/ensdomains/ens-contracts/blob/master/contracts/utils/NameEncoder.sol\":172:1555  function dnsEncodeName(... */\n    tag_10:\n        /* \"https://github.com/ensdomains/ens-contracts/blob/master/contracts/utils/NameEncoder.sol\":252:272  bytes memory dnsName */\n      0x60\n        /* \"https://github.com/ensdomains/ens-contracts/blob/master/contracts/utils/NameEncoder.sol\":274:286  bytes32 node */\n      0x00\n        /* \"https://github.com/ensdomains/ens-contracts/blob/master/contracts/utils/NameEncoder.sol\":298:315  uint8 labelLength */\n      dup1\n        /* \"https://github.com/ensdomains/ens-contracts/blob/master/contracts/utils/NameEncoder.sol\":318:319  0 */\n      0x00\n        /* \"https://github.com/ensdomains/ens-contracts/blob/master/contracts/utils/NameEncoder.sol\":298:319  uint8 labelLength = 0 */\n      swap1\n      pop\n        /* \"https://github.com/ensdomains/ens-contracts/blob/master/contracts/utils/NameEncoder.sol\":329:351  bytes memory bytesName */\n      0x00\n        /* \"https://github.com/ensdomains/ens-contracts/blob/master/contracts/utils/NameEncoder.sol\":360:364  name */\n      dup5\n        /* \"https://github.com/ensdomains/ens-contracts/blob/master/contracts/utils/NameEncoder.sol\":329:365  bytes memory bytesName = bytes(name) */\n      swap1\n      pop\n        /* \"https://github.com/ensdomains/ens-contracts/blob/master/contracts/utils/NameEncoder.sol\":375:389  uint256 length */\n      0x00\n        /* \"https://github.com/ensdomains/ens-contracts/blob/master/contracts/utils/NameEncoder.sol\":392:401  bytesName */\n      dup2\n        /* \"https://github.com/ensdomains/ens-contracts/blob/master/contracts/utils/NameEncoder.sol\":392:408  bytesName.length */\n      mload\n        /* \"https://github.com/ensdomains/ens-contracts/blob/master/contracts/utils/NameEncoder.sol\":375:408  uint256 length = bytesName.length */\n      swap1\n      pop\n        /* \"https://github.com/ensdomains/ens-contracts/blob/master/contracts/utils/NameEncoder.sol\":447:448  2 */\n      0x02\n        /* \"https://github.com/ensdomains/ens-contracts/blob/master/contracts/utils/NameEncoder.sol\":438:444  length */\n      dup2\n        /* \"https://github.com/ensdomains/ens-contracts/blob/master/contracts/utils/NameEncoder.sol\":438:448  length + 2 */\n      tag_23\n      swap2\n      swap1\n      tag_24\n      jump\t// in\n    tag_23:\n        /* \"https://github.com/ensdomains/ens-contracts/blob/master/contracts/utils/NameEncoder.sol\":428:449  new bytes(length + 2) */\n      0xffffffffffffffff\n      dup2\n      gt\n      iszero\n      tag_25\n      jumpi\n      tag_26\n      tag_27\n      jump\t// in\n    tag_26:\n    tag_25:\n      mload(0x40)\n      swap1\n      dup1\n      dup3\n      mstore\n      dup1\n      0x1f\n      add\n      not(0x1f)\n      and\n      0x20\n      add\n      dup3\n      add\n      0x40\n      mstore\n      dup1\n      iszero\n      tag_28\n      jumpi\n      dup2\n      0x20\n      add\n      0x01\n      dup3\n      mul\n      dup1\n      calldatasize\n      dup4\n      calldatacopy\n      dup1\n      dup3\n      add\n      swap2\n      pop\n      pop\n      swap1\n      pop\n    tag_28:\n      pop\n        /* \"https://github.com/ensdomains/ens-contracts/blob/master/contracts/utils/NameEncoder.sol\":418:449  dnsName = new bytes(length + 2) */\n      swap5\n      pop\n        /* \"https://github.com/ensdomains/ens-contracts/blob/master/contracts/utils/NameEncoder.sol\":466:467  0 */\n      0x00\n        /* \"https://github.com/ensdomains/ens-contracts/blob/master/contracts/utils/NameEncoder.sol\":459:467  node = 0 */\n      dup1\n      shl\n      swap4\n      pop\n        /* \"https://github.com/ensdomains/ens-contracts/blob/master/contracts/utils/NameEncoder.sol\":491:492  0 */\n      0x00\n        /* \"https://github.com/ensdomains/ens-contracts/blob/master/contracts/utils/NameEncoder.sol\":481:487  length */\n      dup2\n        /* \"https://github.com/ensdomains/ens-contracts/blob/master/contracts/utils/NameEncoder.sol\":481:492  length == 0 */\n      sub\n        /* \"https://github.com/ensdomains/ens-contracts/blob/master/contracts/utils/NameEncoder.sol\":477:569  if (length == 0) {... */\n      tag_29\n      jumpi\n        /* \"https://github.com/ensdomains/ens-contracts/blob/master/contracts/utils/NameEncoder.sol\":521:522  0 */\n      0x00\n        /* \"https://github.com/ensdomains/ens-contracts/blob/master/contracts/utils/NameEncoder.sol\":508:522  dnsName[0] = 0 */\n      0xf8\n      shl\n        /* \"https://github.com/ensdomains/ens-contracts/blob/master/contracts/utils/NameEncoder.sol\":508:515  dnsName */\n      dup6\n        /* \"https://github.com/ensdomains/ens-contracts/blob/master/contracts/utils/NameEncoder.sol\":516:517  0 */\n      0x00\n        /* \"https://github.com/ensdomains/ens-contracts/blob/master/contracts/utils/NameEncoder.sol\":508:518  dnsName[0] */\n      dup2\n      mload\n      dup2\n      lt\n      tag_30\n      jumpi\n      tag_31\n      tag_32\n      jump\t// in\n    tag_31:\n    tag_30:\n      0x20\n      add\n      add\n        /* \"https://github.com/ensdomains/ens-contracts/blob/master/contracts/utils/NameEncoder.sol\":508:522  dnsName[0] = 0 */\n      swap1\n      not(0xffffffffffffffffffffffffffffffffffffffffffffffffffffffffffffff)\n      and\n      swap1\n      dup2\n      0x00\n      byte\n      swap1\n      mstore8\n      pop\n        /* \"https://github.com/ensdomains/ens-contracts/blob/master/contracts/utils/NameEncoder.sol\":536:558  return (dnsName, node) */\n      pop\n      pop\n      pop\n      jump(tag_22)\n        /* \"https://github.com/ensdomains/ens-contracts/blob/master/contracts/utils/NameEncoder.sol\":477:569  if (length == 0) {... */\n    tag_29:\n        /* \"https://github.com/ensdomains/ens-contracts/blob/master/contracts/utils/NameEncoder.sol\":732:741  uint256 i */\n      0x00\n        /* \"https://github.com/ensdomains/ens-contracts/blob/master/contracts/utils/NameEncoder.sol\":753:754  1 */\n      0x01\n        /* \"https://github.com/ensdomains/ens-contracts/blob/master/contracts/utils/NameEncoder.sol\":744:750  length */\n      dup3\n        /* \"https://github.com/ensdomains/ens-contracts/blob/master/contracts/utils/NameEncoder.sol\":744:754  length - 1 */\n      sub\n        /* \"https://github.com/ensdomains/ens-contracts/blob/master/contracts/utils/NameEncoder.sol\":732:754  uint256 i = length - 1 */\n      swap1\n      pop\n        /* \"https://github.com/ensdomains/ens-contracts/blob/master/contracts/utils/NameEncoder.sol\":727:1357  for (uint256 i = length - 1; i >= 0; i--) {... */\n    tag_33:\n        /* \"https://github.com/ensdomains/ens-contracts/blob/master/contracts/utils/NameEncoder.sol\":761:762  0 */\n      0x00\n        /* \"https://github.com/ensdomains/ens-contracts/blob/master/contracts/utils/NameEncoder.sol\":756:757  i */\n      dup2\n        /* \"https://github.com/ensdomains/ens-contracts/blob/master/contracts/utils/NameEncoder.sol\":756:762  i >= 0 */\n      lt\n        /* \"https://github.com/ensdomains/ens-contracts/blob/master/contracts/utils/NameEncoder.sol\":727:1357  for (uint256 i = length - 1; i >= 0; i--) {... */\n      tag_34\n      jumpi\n        /* \"https://github.com/ensdomains/ens-contracts/blob/master/contracts/utils/NameEncoder.sol\":791:810  bytesName[i] == \".\" */\n      0x2e00000000000000000000000000000000000000000000000000000000000000\n        /* \"https://github.com/ensdomains/ens-contracts/blob/master/contracts/utils/NameEncoder.sol\":791:800  bytesName */\n      dup4\n        /* \"https://github.com/ensdomains/ens-contracts/blob/master/contracts/utils/NameEncoder.sol\":801:802  i */\n      dup3\n        /* \"https://github.com/ensdomains/ens-contracts/blob/master/contracts/utils/NameEncoder.sol\":791:803  bytesName[i] */\n      dup2\n      mload\n      dup2\n      lt\n      tag_36\n      jumpi\n      tag_37\n      tag_32\n      jump\t// in\n    tag_37:\n    tag_36:\n      0x20\n      add\n      add\n      mload\n      0xf8\n      shr\n      0xf8\n      shl\n        /* \"https://github.com/ensdomains/ens-contracts/blob/master/contracts/utils/NameEncoder.sol\":791:810  bytesName[i] == \".\" */\n      not(0xffffffffffffffffffffffffffffffffffffffffffffffffffffffffffffff)\n      and\n      sub\n        /* \"https://github.com/ensdomains/ens-contracts/blob/master/contracts/utils/NameEncoder.sol\":787:1268  if (bytesName[i] == \".\") {... */\n      tag_38\n      jumpi\n        /* \"https://github.com/ensdomains/ens-contracts/blob/master/contracts/utils/NameEncoder.sol\":858:869  labelLength */\n      dup4\n        /* \"https://github.com/ensdomains/ens-contracts/blob/master/contracts/utils/NameEncoder.sol\":851:870  bytes1(labelLength) */\n      0xf8\n      shl\n        /* \"https://github.com/ensdomains/ens-contracts/blob/master/contracts/utils/NameEncoder.sol\":834:841  dnsName */\n      dup7\n        /* \"https://github.com/ensdomains/ens-contracts/blob/master/contracts/utils/NameEncoder.sol\":846:847  1 */\n      0x01\n        /* \"https://github.com/ensdomains/ens-contracts/blob/master/contracts/utils/NameEncoder.sol\":842:843  i */\n      dup4\n        /* \"https://github.com/ensdomains/ens-contracts/blob/master/contracts/utils/NameEncoder.sol\":842:847  i + 1 */\n      add\n        /* \"https://github.com/ensdomains/ens-contracts/blob/master/contracts/utils/NameEncoder.sol\":834:848  dnsName[i + 1] */\n      dup2\n      mload\n      dup2\n      lt\n      tag_39\n      jumpi\n      tag_40\n      tag_32\n      jump\t// in\n    tag_40:\n    tag_39:\n      0x20\n      add\n      add\n        /* \"https://github.com/ensdomains/ens-contracts/blob/master/contracts/utils/NameEncoder.sol\":834:870  dnsName[i + 1] = bytes1(labelLength) */\n      swap1\n      not(0xffffffffffffffffffffffffffffffffffffffffffffffffffffffffffffff)\n      and\n      swap1\n      dup2\n      0x00\n      byte\n      swap1\n      mstore8\n      pop\n        /* \"https://github.com/ensdomains/ens-contracts/blob/master/contracts/utils/NameEncoder.sol\":980:984  node */\n      dup5\n        /* \"https://github.com/ensdomains/ens-contracts/blob/master/contracts/utils/NameEncoder.sol\":1014:1050  bytesName.keccak(i + 1, labelLength) */\n      tag_41\n        /* \"https://github.com/ensdomains/ens-contracts/blob/master/contracts/utils/NameEncoder.sol\":1035:1036  1 */\n      0x01\n        /* \"https://github.com/ensdomains/ens-contracts/blob/master/contracts/utils/NameEncoder.sol\":1031:1032  i */\n      dup4\n        /* \"https://github.com/ensdomains/ens-contracts/blob/master/contracts/utils/NameEncoder.sol\":1031:1036  i + 1 */\n      add\n        /* \"https://github.com/ensdomains/ens-contracts/blob/master/contracts/utils/NameEncoder.sol\":1038:1049  labelLength */\n      dup7\n        /* \"https://github.com/ensdomains/ens-contracts/blob/master/contracts/utils/NameEncoder.sol\":1014:1050  bytesName.keccak(i + 1, labelLength) */\n      0xff\n      and\n        /* \"https://github.com/ensdomains/ens-contracts/blob/master/contracts/utils/NameEncoder.sol\":1014:1023  bytesName */\n      dup7\n        /* \"https://github.com/ensdomains/ens-contracts/blob/master/contracts/utils/NameEncoder.sol\":1014:1030  bytesName.keccak */\n      tag_42\n      swap1\n        /* \"https://github.com/ensdomains/ens-contracts/blob/master/contracts/utils/NameEncoder.sol\":1014:1050  bytesName.keccak(i + 1, labelLength) */\n      swap3\n      swap2\n      swap1\n      0xffffffff\n      and\n      jump\t// in\n    tag_41:\n        /* \"https://github.com/ensdomains/ens-contracts/blob/master/contracts/utils/NameEncoder.sol\":934:1076  abi.encodePacked(... */\n      add(0x20, mload(0x40))\n      tag_43\n      swap3\n      swap2\n      swap1\n      tag_44\n      jump\t// in\n    tag_43:\n      mload(0x40)\n      0x20\n      dup2\n      dup4\n      sub\n      sub\n      dup2\n      mstore\n      swap1\n      0x40\n      mstore\n        /* \"https://github.com/ensdomains/ens-contracts/blob/master/contracts/utils/NameEncoder.sol\":899:1098  keccak256(... */\n      dup1\n      mload\n      swap1\n      0x20\n      add\n      keccak256\n        /* \"https://github.com/ensdomains/ens-contracts/blob/master/contracts/utils/NameEncoder.sol\":892:1098  node = keccak256(... */\n      swap5\n      pop\n        /* \"https://github.com/ensdomains/ens-contracts/blob/master/contracts/utils/NameEncoder.sol\":1134:1135  0 */\n      0x00\n        /* \"https://github.com/ensdomains/ens-contracts/blob/master/contracts/utils/NameEncoder.sol\":1120:1135  labelLength = 0 */\n      swap4\n      pop\n        /* \"https://github.com/ensdomains/ens-contracts/blob/master/contracts/utils/NameEncoder.sol\":787:1268  if (bytesName[i] == \".\") {... */\n      jump(tag_45)\n    tag_38:\n        /* \"https://github.com/ensdomains/ens-contracts/blob/master/contracts/utils/NameEncoder.sol\":1197:1198  1 */\n      0x01\n        /* \"https://github.com/ensdomains/ens-contracts/blob/master/contracts/utils/NameEncoder.sol\":1182:1198  labelLength += 1 */\n      dup5\n      add\n      swap4\n      pop\n        /* \"https://github.com/ensdomains/ens-contracts/blob/master/contracts/utils/NameEncoder.sol\":1237:1246  bytesName */\n      dup3\n        /* \"https://github.com/ensdomains/ens-contracts/blob/master/contracts/utils/NameEncoder.sol\":1247:1248  i */\n      dup2\n        /* \"https://github.com/ensdomains/ens-contracts/blob/master/contracts/utils/NameEncoder.sol\":1237:1249  bytesName[i] */\n      dup2\n      mload\n      dup2\n      lt\n      tag_46\n      jumpi\n      tag_47\n      tag_32\n      jump\t// in\n    tag_47:\n    tag_46:\n      0x20\n      add\n      add\n      mload\n      0xf8\n      shr\n      0xf8\n      shl\n        /* \"https://github.com/ensdomains/ens-contracts/blob/master/contracts/utils/NameEncoder.sol\":1220:1227  dnsName */\n      dup7\n        /* \"https://github.com/ensdomains/ens-contracts/blob/master/contracts/utils/NameEncoder.sol\":1232:1233  1 */\n      0x01\n        /* \"https://github.com/ensdomains/ens-contracts/blob/master/contracts/utils/NameEncoder.sol\":1228:1229  i */\n      dup4\n        /* \"https://github.com/ensdomains/ens-contracts/blob/master/contracts/utils/NameEncoder.sol\":1228:1233  i + 1 */\n      add\n        /* \"https://github.com/ensdomains/ens-contracts/blob/master/contracts/utils/NameEncoder.sol\":1220:1234  dnsName[i + 1] */\n      dup2\n      mload\n      dup2\n      lt\n      tag_48\n      jumpi\n      tag_49\n      tag_32\n      jump\t// in\n    tag_49:\n    tag_48:\n      0x20\n      add\n      add\n        /* \"https://github.com/ensdomains/ens-contracts/blob/master/contracts/utils/NameEncoder.sol\":1220:1249  dnsName[i + 1] = bytesName[i] */\n      swap1\n      not(0xffffffffffffffffffffffffffffffffffffffffffffffffffffffffffffff)\n      and\n      swap1\n      dup2\n      0x00\n      byte\n      swap1\n      mstore8\n      pop\n        /* \"https://github.com/ensdomains/ens-contracts/blob/master/contracts/utils/NameEncoder.sol\":787:1268  if (bytesName[i] == \".\") {... */\n    tag_45:\n        /* \"https://github.com/ensdomains/ens-contracts/blob/master/contracts/utils/NameEncoder.sol\":1294:1295  0 */\n      0x00\n        /* \"https://github.com/ensdomains/ens-contracts/blob/master/contracts/utils/NameEncoder.sol\":1289:1290  i */\n      dup2\n        /* \"https://github.com/ensdomains/ens-contracts/blob/master/contracts/utils/NameEncoder.sol\":1289:1295  i == 0 */\n      sub\n        /* \"https://github.com/ensdomains/ens-contracts/blob/master/contracts/utils/NameEncoder.sol\":1285:1343  if (i == 0) {... */\n      iszero\n        /* \"https://github.com/ensdomains/ens-contracts/blob/master/contracts/utils/NameEncoder.sol\":1319:1324  break */\n      tag_34\n        /* \"https://github.com/ensdomains/ens-contracts/blob/master/contracts/utils/NameEncoder.sol\":1285:1343  if (i == 0) {... */\n      jumpi\n        /* \"https://github.com/ensdomains/ens-contracts/blob/master/contracts/utils/NameEncoder.sol\":764:767  i-- */\n      dup1\n      dup1\n      0x01\n      swap1\n      sub\n      swap2\n      pop\n      pop\n        /* \"https://github.com/ensdomains/ens-contracts/blob/master/contracts/utils/NameEncoder.sol\":727:1357  for (uint256 i = length - 1; i >= 0; i--) {... */\n      jump(tag_33)\n    tag_34:\n      pop\n        /* \"https://github.com/ensdomains/ens-contracts/blob/master/contracts/utils/NameEncoder.sol\":1424:1428  node */\n      dup4\n        /* \"https://github.com/ensdomains/ens-contracts/blob/master/contracts/utils/NameEncoder.sol\":1430:1462  bytesName.keccak(0, labelLength) */\n      tag_51\n        /* \"https://github.com/ensdomains/ens-contracts/blob/master/contracts/utils/NameEncoder.sol\":1447:1448  0 */\n      0x00\n        /* \"https://github.com/ensdomains/ens-contracts/blob/master/contracts/utils/NameEncoder.sol\":1450:1461  labelLength */\n      dup6\n        /* \"https://github.com/ensdomains/ens-contracts/blob/master/contracts/utils/NameEncoder.sol\":1430:1462  bytesName.keccak(0, labelLength) */\n      0xff\n      and\n        /* \"https://github.com/ensdomains/ens-contracts/blob/master/contracts/utils/NameEncoder.sol\":1430:1439  bytesName */\n      dup6\n        /* \"https://github.com/ensdomains/ens-contracts/blob/master/contracts/utils/NameEncoder.sol\":1430:1446  bytesName.keccak */\n      tag_42\n      swap1\n        /* \"https://github.com/ensdomains/ens-contracts/blob/master/contracts/utils/NameEncoder.sol\":1430:1462  bytesName.keccak(0, labelLength) */\n      swap3\n      swap2\n      swap1\n      0xffffffff\n      and\n      jump\t// in\n    tag_51:\n        /* \"https://github.com/ensdomains/ens-contracts/blob/master/contracts/utils/NameEncoder.sol\":1407:1463  abi.encodePacked(node, bytesName.keccak(0, labelLength)) */\n      add(0x20, mload(0x40))\n      tag_52\n      swap3\n      swap2\n      swap1\n      tag_44\n      jump\t// in\n    tag_52:\n      mload(0x40)\n      0x20\n      dup2\n      dup4\n      sub\n      sub\n      dup2\n      mstore\n      swap1\n      0x40\n      mstore\n        /* \"https://github.com/ensdomains/ens-contracts/blob/master/contracts/utils/NameEncoder.sol\":1384:1473  keccak256(... */\n      dup1\n      mload\n      swap1\n      0x20\n      add\n      keccak256\n        /* \"https://github.com/ensdomains/ens-contracts/blob/master/contracts/utils/NameEncoder.sol\":1377:1473  node = keccak256(... */\n      swap4\n      pop\n        /* \"https://github.com/ensdomains/ens-contracts/blob/master/contracts/utils/NameEncoder.sol\":1504:1515  labelLength */\n      dup3\n        /* \"https://github.com/ensdomains/ens-contracts/blob/master/contracts/utils/NameEncoder.sol\":1497:1516  bytes1(labelLength) */\n      0xf8\n      shl\n        /* \"https://github.com/ensdomains/ens-contracts/blob/master/contracts/utils/NameEncoder.sol\":1484:1491  dnsName */\n      dup6\n        /* \"https://github.com/ensdomains/ens-contracts/blob/master/contracts/utils/NameEncoder.sol\":1492:1493  0 */\n      0x00\n        /* \"https://github.com/ensdomains/ens-contracts/blob/master/contracts/utils/NameEncoder.sol\":1484:1494  dnsName[0] */\n      dup2\n      mload\n      dup2\n      lt\n      tag_53\n      jumpi\n      tag_54\n      tag_32\n      jump\t// in\n    tag_54:\n    tag_53:\n      0x20\n      add\n      add\n        /* \"https://github.com/ensdomains/ens-contracts/blob/master/contracts/utils/NameEncoder.sol\":1484:1516  dnsName[0] = bytes1(labelLength) */\n      swap1\n      not(0xffffffffffffffffffffffffffffffffffffffffffffffffffffffffffffff)\n      and\n      swap1\n      dup2\n      0x00\n      byte\n      swap1\n      mstore8\n      pop\n        /* \"https://github.com/ensdomains/ens-contracts/blob/master/contracts/utils/NameEncoder.sol\":1526:1548  return (dnsName, node) */\n      pop\n      pop\n      pop\n        /* \"https://github.com/ensdomains/ens-contracts/blob/master/contracts/utils/NameEncoder.sol\":172:1555  function dnsEncodeName(... */\n    tag_22:\n      swap2\n      pop\n      swap2\n      jump\t// out\n        /* \"https://github.com/ensdomains/ens-contracts/blob/master/contracts/wrapper/BytesUtils.sol\":343:617  function keccak(... */\n    tag_42:\n        /* \"https://github.com/ensdomains/ens-contracts/blob/master/contracts/wrapper/BytesUtils.sol\":460:471  bytes32 ret */\n      0x00\n        /* \"https://github.com/ensdomains/ens-contracts/blob/master/contracts/wrapper/BytesUtils.sol\":507:511  self */\n      dup4\n        /* \"https://github.com/ensdomains/ens-contracts/blob/master/contracts/wrapper/BytesUtils.sol\":507:518  self.length */\n      mload\n        /* \"https://github.com/ensdomains/ens-contracts/blob/master/contracts/wrapper/BytesUtils.sol\":500:503  len */\n      dup3\n        /* \"https://github.com/ensdomains/ens-contracts/blob/master/contracts/wrapper/BytesUtils.sol\":491:497  offset */\n      dup5\n        /* \"https://github.com/ensdomains/ens-contracts/blob/master/contracts/wrapper/BytesUtils.sol\":491:503  offset + len */\n      tag_56\n      swap2\n      swap1\n      tag_24\n      jump\t// in\n    tag_56:\n        /* \"https://github.com/ensdomains/ens-contracts/blob/master/contracts/wrapper/BytesUtils.sol\":491:518  offset + len <= self.length */\n      gt\n      iszero\n        /* \"https://github.com/ensdomains/ens-contracts/blob/master/contracts/wrapper/BytesUtils.sol\":483:519  require(offset + len <= self.length) */\n      tag_57\n      jumpi\n      0x00\n      dup1\n      revert\n    tag_57:\n        /* \"https://github.com/ensdomains/ens-contracts/blob/master/contracts/wrapper/BytesUtils.sol\":597:600  len */\n      dup2\n        /* \"https://github.com/ensdomains/ens-contracts/blob/master/contracts/wrapper/BytesUtils.sol\":588:594  offset */\n      dup4\n        /* \"https://github.com/ensdomains/ens-contracts/blob/master/contracts/wrapper/BytesUtils.sol\":583:585  32 */\n      0x20\n        /* \"https://github.com/ensdomains/ens-contracts/blob/master/contracts/wrapper/BytesUtils.sol\":577:581  self */\n      dup7\n        /* \"https://github.com/ensdomains/ens-contracts/blob/master/contracts/wrapper/BytesUtils.sol\":573:586  add(self, 32) */\n      add\n        /* \"https://github.com/ensdomains/ens-contracts/blob/master/contracts/wrapper/BytesUtils.sol\":569:595  add(add(self, 32), offset) */\n      add\n        /* \"https://github.com/ensdomains/ens-contracts/blob/master/contracts/wrapper/BytesUtils.sol\":559:601  keccak256(add(add(self, 32), offset), len) */\n      keccak256\n        /* \"https://github.com/ensdomains/ens-contracts/blob/master/contracts/wrapper/BytesUtils.sol\":552:601  ret := keccak256(add(add(self, 32), offset), len) */\n      swap1\n      pop\n        /* \"https://github.com/ensdomains/ens-contracts/blob/master/contracts/wrapper/BytesUtils.sol\":343:617  function keccak(... */\n      swap4\n      swap3\n      pop\n      pop\n      pop\n      jump\t// out\n        /* \"#utility.yul\":7:133   */\n    tag_58:\n        /* \"#utility.yul\":44:51   */\n      0x00\n        /* \"#utility.yul\":84:126   */\n      0xffffffffffffffffffffffffffffffffffffffff\n        /* \"#utility.yul\":77:82   */\n      dup3\n        /* \"#utility.yul\":73:127   */\n      and\n        /* \"#utility.yul\":62:127   */\n      swap1\n      pop\n        /* \"#utility.yul\":7:133   */\n      swap2\n      swap1\n      pop\n      jump\t// out\n        /* \"#utility.yul\":139:235   */\n    tag_59:\n        /* \"#utility.yul\":176:183   */\n      0x00\n        /* \"#utility.yul\":205:229   */\n      tag_78\n        /* \"#utility.yul\":223:228   */\n      dup3\n        /* \"#utility.yul\":205:229   */\n      tag_58\n      jump\t// in\n    tag_78:\n        /* \"#utility.yul\":194:229   */\n      swap1\n      pop\n        /* \"#utility.yul\":139:235   */\n      swap2\n      swap1\n      pop\n      jump\t// out\n        /* \"#utility.yul\":241:359   */\n    tag_60:\n        /* \"#utility.yul\":328:352   */\n      tag_80\n        /* \"#utility.yul\":346:351   */\n      dup2\n        /* \"#utility.yul\":328:352   */\n      tag_59\n      jump\t// in\n    tag_80:\n        /* \"#utility.yul\":323:326   */\n      dup3\n        /* \"#utility.yul\":316:353   */\n      mstore\n        /* \"#utility.yul\":241:359   */\n      pop\n      pop\n      jump\t// out\n        /* \"#utility.yul\":365:587   */\n    tag_7:\n        /* \"#utility.yul\":458:462   */\n      0x00\n        /* \"#utility.yul\":496:498   */\n      0x20\n        /* \"#utility.yul\":485:494   */\n      dup3\n        /* \"#utility.yul\":481:499   */\n      add\n        /* \"#utility.yul\":473:499   */\n      swap1\n      pop\n        /* \"#utility.yul\":509:580   */\n      tag_82\n        /* \"#utility.yul\":577:578   */\n      0x00\n        /* \"#utility.yul\":566:575   */\n      dup4\n        /* \"#utility.yul\":562:579   */\n      add\n        /* \"#utility.yul\":553:559   */\n      dup5\n        /* \"#utility.yul\":509:580   */\n      tag_60\n      jump\t// in\n    tag_82:\n        /* \"#utility.yul\":365:587   */\n      swap3\n      swap2\n      pop\n      pop\n      jump\t// out\n        /* \"#utility.yul\":593:670   */\n    tag_61:\n        /* \"#utility.yul\":630:637   */\n      0x00\n        /* \"#utility.yul\":659:664   */\n      dup2\n        /* \"#utility.yul\":648:664   */\n      swap1\n      pop\n        /* \"#utility.yul\":593:670   */\n      swap2\n      swap1\n      pop\n      jump\t// out\n        /* \"#utility.yul\":676:794   */\n    tag_62:\n        /* \"#utility.yul\":763:787   */\n      tag_85\n        /* \"#utility.yul\":781:786   */\n      dup2\n        /* \"#utility.yul\":763:787   */\n      tag_61\n      jump\t// in\n    tag_85:\n        /* \"#utility.yul\":758:761   */\n      dup3\n        /* \"#utility.yul\":751:788   */\n      mstore\n        /* \"#utility.yul\":676:794   */\n      pop\n      pop\n      jump\t// out\n        /* \"#utility.yul\":800:1022   */\n    tag_12:\n        /* \"#utility.yul\":893:897   */\n      0x00\n        /* \"#utility.yul\":931:933   */\n      0x20\n        /* \"#utility.yul\":920:929   */\n      dup3\n        /* \"#utility.yul\":916:934   */\n      add\n        /* \"#utility.yul\":908:934   */\n      swap1\n      pop\n        /* \"#utility.yul\":944:1015   */\n      tag_87\n        /* \"#utility.yul\":1012:1013   */\n      0x00\n        /* \"#utility.yul\":1001:1010   */\n      dup4\n        /* \"#utility.yul\":997:1014   */\n      add\n        /* \"#utility.yul\":988:994   */\n      dup5\n        /* \"#utility.yul\":944:1015   */\n      tag_62\n      jump\t// in\n    tag_87:\n        /* \"#utility.yul\":800:1022   */\n      swap3\n      swap2\n      pop\n      pop\n      jump\t// out\n        /* \"#utility.yul\":1109:1226   */\n    tag_64:\n        /* \"#utility.yul\":1218:1219   */\n      0x00\n        /* \"#utility.yul\":1215:1216   */\n      dup1\n        /* \"#utility.yul\":1208:1220   */\n      revert\n        /* \"#utility.yul\":1355:1467   */\n    tag_66:\n        /* \"#utility.yul\":1408:1415   */\n      0x00\n        /* \"#utility.yul\":1437:1461   */\n      tag_92\n        /* \"#utility.yul\":1455:1460   */\n      dup3\n        /* \"#utility.yul\":1437:1461   */\n      tag_59\n      jump\t// in\n    tag_92:\n        /* \"#utility.yul\":1426:1461   */\n      swap1\n      pop\n        /* \"#utility.yul\":1355:1467   */\n      swap2\n      swap1\n      pop\n      jump\t// out\n        /* \"#utility.yul\":1473:1627   */\n    tag_67:\n        /* \"#utility.yul\":1562:1602   */\n      tag_94\n        /* \"#utility.yul\":1596:1601   */\n      dup2\n        /* \"#utility.yul\":1562:1602   */\n      tag_66\n      jump\t// in\n    tag_94:\n        /* \"#utility.yul\":1555:1560   */\n      dup2\n        /* \"#utility.yul\":1552:1603   */\n      eq\n        /* \"#utility.yul\":1542:1621   */\n      tag_95\n      jumpi\n        /* \"#utility.yul\":1617:1618   */\n      0x00\n        /* \"#utility.yul\":1614:1615   */\n      dup1\n        /* \"#utility.yul\":1607:1619   */\n      revert\n        /* \"#utility.yul\":1542:1621   */\n    tag_95:\n        /* \"#utility.yul\":1473:1627   */\n      pop\n      jump\t// out\n        /* \"#utility.yul\":1633:1808   */\n    tag_68:\n        /* \"#utility.yul\":1706:1711   */\n      0x00\n        /* \"#utility.yul\":1737:1743   */\n      dup2\n        /* \"#utility.yul\":1731:1744   */\n      mload\n        /* \"#utility.yul\":1722:1744   */\n      swap1\n      pop\n        /* \"#utility.yul\":1753:1802   */\n      tag_97\n        /* \"#utility.yul\":1796:1801   */\n      dup2\n        /* \"#utility.yul\":1753:1802   */\n      tag_67\n      jump\t// in\n    tag_97:\n        /* \"#utility.yul\":1633:1808   */\n      swap3\n      swap2\n      pop\n      pop\n      jump\t// out\n        /* \"#utility.yul\":1814:2197   */\n    tag_16:\n        /* \"#utility.yul\":1900:1906   */\n      0x00\n        /* \"#utility.yul\":1949:1951   */\n      0x20\n        /* \"#utility.yul\":1937:1946   */\n      dup3\n        /* \"#utility.yul\":1928:1935   */\n      dup5\n        /* \"#utility.yul\":1924:1947   */\n      sub\n        /* \"#utility.yul\":1920:1952   */\n      slt\n        /* \"#utility.yul\":1917:2036   */\n      iszero\n      tag_99\n      jumpi\n        /* \"#utility.yul\":1955:2034   */\n      tag_100\n      tag_64\n      jump\t// in\n    tag_100:\n        /* \"#utility.yul\":1917:2036   */\n    tag_99:\n        /* \"#utility.yul\":2075:2076   */\n      0x00\n        /* \"#utility.yul\":2100:2180   */\n      tag_101\n        /* \"#utility.yul\":2172:2179   */\n      dup5\n        /* \"#utility.yul\":2163:2169   */\n      dup3\n        /* \"#utility.yul\":2152:2161   */\n      dup6\n        /* \"#utility.yul\":2148:2170   */\n      add\n        /* \"#utility.yul\":2100:2180   */\n      tag_68\n      jump\t// in\n    tag_101:\n        /* \"#utility.yul\":2090:2180   */\n      swap2\n      pop\n        /* \"#utility.yul\":2046:2190   */\n      pop\n        /* \"#utility.yul\":1814:2197   */\n      swap3\n      swap2\n      pop\n      pop\n      jump\t// out\n        /* \"#utility.yul\":2203:2325   */\n    tag_69:\n        /* \"#utility.yul\":2276:2300   */\n      tag_103\n        /* \"#utility.yul\":2294:2299   */\n      dup2\n        /* \"#utility.yul\":2276:2300   */\n      tag_59\n      jump\t// in\n    tag_103:\n        /* \"#utility.yul\":2269:2274   */\n      dup2\n        /* \"#utility.yul\":2266:2301   */\n      eq\n        /* \"#utility.yul\":2256:2319   */\n      tag_104\n      jumpi\n        /* \"#utility.yul\":2315:2316   */\n      0x00\n        /* \"#utility.yul\":2312:2313   */\n      dup1\n        /* \"#utility.yul\":2305:2317   */\n      revert\n        /* \"#utility.yul\":2256:2319   */\n    tag_104:\n        /* \"#utility.yul\":2203:2325   */\n      pop\n      jump\t// out\n        /* \"#utility.yul\":2331:2474   */\n    tag_70:\n        /* \"#utility.yul\":2388:2393   */\n      0x00\n        /* \"#utility.yul\":2419:2425   */\n      dup2\n        /* \"#utility.yul\":2413:2426   */\n      mload\n        /* \"#utility.yul\":2404:2426   */\n      swap1\n      pop\n        /* \"#utility.yul\":2435:2468   */\n      tag_106\n        /* \"#utility.yul\":2462:2467   */\n      dup2\n        /* \"#utility.yul\":2435:2468   */\n      tag_69\n      jump\t// in\n    tag_106:\n        /* \"#utility.yul\":2331:2474   */\n      swap3\n      swap2\n      pop\n      pop\n      jump\t// out\n        /* \"#utility.yul\":2480:2831   */\n    tag_21:\n        /* \"#utility.yul\":2550:2556   */\n      0x00\n        /* \"#utility.yul\":2599:2601   */\n      0x20\n        /* \"#utility.yul\":2587:2596   */\n      dup3\n        /* \"#utility.yul\":2578:2585   */\n      dup5\n        /* \"#utility.yul\":2574:2597   */\n      sub\n        /* \"#utility.yul\":2570:2602   */\n      slt\n        /* \"#utility.yul\":2567:2686   */\n      iszero\n      tag_108\n      jumpi\n        /* \"#utility.yul\":2605:2684   */\n      tag_109\n      tag_64\n      jump\t// in\n    tag_109:\n        /* \"#utility.yul\":2567:2686   */\n    tag_108:\n        /* \"#utility.yul\":2725:2726   */\n      0x00\n        /* \"#utility.yul\":2750:2814   */\n      tag_110\n        /* \"#utility.yul\":2806:2813   */\n      dup5\n        /* \"#utility.yul\":2797:2803   */\n      dup3\n        /* \"#utility.yul\":2786:2795   */\n      dup6\n        /* \"#utility.yul\":2782:2804   */\n      add\n        /* \"#utility.yul\":2750:2814   */\n      tag_70\n      jump\t// in\n    tag_110:\n        /* \"#utility.yul\":2740:2814   */\n      swap2\n      pop\n        /* \"#utility.yul\":2696:2824   */\n      pop\n        /* \"#utility.yul\":2480:2831   */\n      swap3\n      swap2\n      pop\n      pop\n      jump\t// out\n        /* \"#utility.yul\":2837:2914   */\n    tag_71:\n        /* \"#utility.yul\":2874:2881   */\n      0x00\n        /* \"#utility.yul\":2903:2908   */\n      dup2\n        /* \"#utility.yul\":2892:2908   */\n      swap1\n      pop\n        /* \"#utility.yul\":2837:2914   */\n      swap2\n      swap1\n      pop\n      jump\t// out\n        /* \"#utility.yul\":2920:3100   */\n    tag_72:\n        /* \"#utility.yul\":2968:3045   */\n      0x4e487b7100000000000000000000000000000000000000000000000000000000\n        /* \"#utility.yul\":2965:2966   */\n      0x00\n        /* \"#utility.yul\":2958:3046   */\n      mstore\n        /* \"#utility.yul\":3065:3069   */\n      0x11\n        /* \"#utility.yul\":3062:3063   */\n      0x04\n        /* \"#utility.yul\":3055:3070   */\n      mstore\n        /* \"#utility.yul\":3089:3093   */\n      0x24\n        /* \"#utility.yul\":3086:3087   */\n      0x00\n        /* \"#utility.yul\":3079:3094   */\n      revert\n        /* \"#utility.yul\":3106:3297   */\n    tag_24:\n        /* \"#utility.yul\":3146:3149   */\n      0x00\n        /* \"#utility.yul\":3165:3185   */\n      tag_114\n        /* \"#utility.yul\":3183:3184   */\n      dup3\n        /* \"#utility.yul\":3165:3185   */\n      tag_71\n      jump\t// in\n    tag_114:\n        /* \"#utility.yul\":3160:3185   */\n      swap2\n      pop\n        /* \"#utility.yul\":3199:3219   */\n      tag_115\n        /* \"#utility.yul\":3217:3218   */\n      dup4\n        /* \"#utility.yul\":3199:3219   */\n      tag_71\n      jump\t// in\n    tag_115:\n        /* \"#utility.yul\":3194:3219   */\n      swap3\n      pop\n        /* \"#utility.yul\":3242:3243   */\n      dup3\n        /* \"#utility.yul\":3239:3240   */\n      dup3\n        /* \"#utility.yul\":3235:3244   */\n      add\n        /* \"#utility.yul\":3228:3244   */\n      swap1\n      pop\n        /* \"#utility.yul\":3263:3266   */\n      dup1\n        /* \"#utility.yul\":3260:3261   */\n      dup3\n        /* \"#utility.yul\":3257:3267   */\n      gt\n        /* \"#utility.yul\":3254:3290   */\n      iszero\n      tag_116\n      jumpi\n        /* \"#utility.yul\":3270:3288   */\n      tag_117\n      tag_72\n      jump\t// in\n    tag_117:\n        /* \"#utility.yul\":3254:3290   */\n    tag_116:\n        /* \"#utility.yul\":3106:3297   */\n      swap3\n      swap2\n      pop\n      pop\n      jump\t// out\n        /* \"#utility.yul\":3303:3483   */\n    tag_27:\n        /* \"#utility.yul\":3351:3428   */\n      0x4e487b7100000000000000000000000000000000000000000000000000000000\n        /* \"#utility.yul\":3348:3349   */\n      0x00\n        /* \"#utility.yul\":3341:3429   */\n      mstore\n        /* \"#utility.yul\":3448:3452   */\n      0x41\n        /* \"#utility.yul\":3445:3446   */\n      0x04\n        /* \"#utility.yul\":3438:3453   */\n      mstore\n        /* \"#utility.yul\":3472:3476   */\n      0x24\n        /* \"#utility.yul\":3469:3470   */\n      0x00\n        /* \"#utility.yul\":3462:3477   */\n      revert\n        /* \"#utility.yul\":3489:3669   */\n    tag_32:\n        /* \"#utility.yul\":3537:3614   */\n      0x4e487b7100000000000000000000000000000000000000000000000000000000\n        /* \"#utility.yul\":3534:3535   */\n      0x00\n        /* \"#utility.yul\":3527:3615   */\n      mstore\n        /* \"#utility.yul\":3634:3638   */\n      0x32\n        /* \"#utility.yul\":3631:3632   */\n      0x04\n        /* \"#utility.yul\":3624:3639   */\n      mstore\n        /* \"#utility.yul\":3658:3662   */\n      0x24\n        /* \"#utility.yul\":3655:3656   */\n      0x00\n        /* \"#utility.yul\":3648:3663   */\n      revert\n        /* \"#utility.yul\":3675:3754   */\n    tag_73:\n        /* \"#utility.yul\":3714:3721   */\n      0x00\n        /* \"#utility.yul\":3743:3748   */\n      dup2\n        /* \"#utility.yul\":3732:3748   */\n      swap1\n      pop\n        /* \"#utility.yul\":3675:3754   */\n      swap2\n      swap1\n      pop\n      jump\t// out\n        /* \"#utility.yul\":3760:3917   */\n    tag_74:\n        /* \"#utility.yul\":3865:3910   */\n      tag_122\n        /* \"#utility.yul\":3885:3909   */\n      tag_123\n        /* \"#utility.yul\":3903:3908   */\n      dup3\n        /* \"#utility.yul\":3885:3909   */\n      tag_61\n      jump\t// in\n    tag_123:\n        /* \"#utility.yul\":3865:3910   */\n      tag_73\n      jump\t// in\n    tag_122:\n        /* \"#utility.yul\":3860:3863   */\n      dup3\n        /* \"#utility.yul\":3853:3911   */\n      mstore\n        /* \"#utility.yul\":3760:3917   */\n      pop\n      pop\n      jump\t// out\n        /* \"#utility.yul\":3923:4320   */\n    tag_44:\n        /* \"#utility.yul\":4063:4066   */\n      0x00\n        /* \"#utility.yul\":4078:4153   */\n      tag_125\n        /* \"#utility.yul\":4149:4152   */\n      dup3\n        /* \"#utility.yul\":4140:4146   */\n      dup6\n        /* \"#utility.yul\":4078:4153   */\n      tag_74\n      jump\t// in\n    tag_125:\n        /* \"#utility.yul\":4178:4180   */\n      0x20\n        /* \"#utility.yul\":4173:4176   */\n      dup3\n        /* \"#utility.yul\":4169:4181   */\n      add\n        /* \"#utility.yul\":4162:4181   */\n      swap2\n      pop\n        /* \"#utility.yul\":4191:4266   */\n      tag_126\n        /* \"#utility.yul\":4262:4265   */\n      dup3\n        /* \"#utility.yul\":4253:4259   */\n      dup5\n        /* \"#utility.yul\":4191:4266   */\n      tag_74\n      jump\t// in\n    tag_126:\n        /* \"#utility.yul\":4291:4293   */\n      0x20\n        /* \"#utility.yul\":4286:4289   */\n      dup3\n        /* \"#utility.yul\":4282:4294   */\n      add\n        /* \"#utility.yul\":4275:4294   */\n      swap2\n      pop\n        /* \"#utility.yul\":4311:4314   */\n      dup2\n        /* \"#utility.yul\":4304:4314   */\n      swap1\n      pop\n        /* \"#utility.yul\":3923:4320   */\n      swap4\n      swap3\n      pop\n      pop\n      pop\n      jump\t// out\n\n    auxdata: 0xa26469706673582212205aa6888b9d7db6e8a8f3cc7d6254d5e0392360ba326307bb4544f124972cff4564736f6c63430008120033\n}\n",
				"bytecode": {
					"linkReferences": {},
					"object": "60806040526e0c2e074ec69a0dfb2997ba6c7d2e1e6000806101000a81548173ffffffffffffffffffffffffffffffffffffffff021916908373ffffffffffffffffffffffffffffffffffffffff16021790555034801561005f57600080fd5b506107758061006f6000396000f3fe608060405234801561001057600080fd5b506004361061002b5760003560e01c80632810e1d614610030575b600080fd5b61003861004e565b604051610045919061050f565b60405180910390f35b60008061008f6040518060400160405280600b81526020017f766974616c696b2e6574680000000000000000000000000000000000000000008152506101b2565b91505060008060009054906101000a900473ffffffffffffffffffffffffffffffffffffffff1673ffffffffffffffffffffffffffffffffffffffff16630178b8bf836040518263ffffffff1660e01b81526004016100ee9190610543565b602060405180830381865afa15801561010b573d6000803e3d6000fd5b505050506040513d601f19601f8201168201806040525081019061012f91906105a1565b90508073ffffffffffffffffffffffffffffffffffffffff16633b3b57de836040518263ffffffff1660e01b815260040161016a9190610543565b602060405180830381865afa158015610187573d6000803e3d6000fd5b505050506040513d601f19601f820116820180604052508101906101ab91906105fa565b9250505090565b60606000806000905060008490506000815190506002816101d39190610660565b67ffffffffffffffff8111156101ec576101eb610694565b5b6040519080825280601f01601f19166020018201604052801561021e5781602001600182028036833780820191505090505b5094506000801b93506000810361027f57600060f81b85600081518110610248576102476106c3565b5b60200101907effffffffffffffffffffffffffffffffffffffffffffffffffffffffffffff1916908160001a90535050505061049d565b60006001820390505b6000811061040e577f2e000000000000000000000000000000000000000000000000000000000000008382815181106102c4576102c36106c3565b5b602001015160f81c60f81b7effffffffffffffffffffffffffffffffffffffffffffffffffffffffffffff19160361038d578360f81b8660018301815181106103105761030f6106c3565b5b60200101907effffffffffffffffffffffffffffffffffffffffffffffffffffffffffffff1916908160001a9053508461035b600183018660ff16866104a29092919063ffffffff16565b60405160200161036c929190610713565b604051602081830303815290604052805190602001209450600093506103f7565b6001840193508281815181106103a6576103a56106c3565b5b602001015160f81c60f81b8660018301815181106103c7576103c66106c3565b5b60200101907effffffffffffffffffffffffffffffffffffffffffffffffffffffffffffff1916908160001a9053505b600081031561040e57808060019003915050610288565b508361042960008560ff16856104a29092919063ffffffff16565b60405160200161043a929190610713565b6040516020818303038152906040528051906020012093508260f81b8560008151811061046a576104696106c3565b5b60200101907effffffffffffffffffffffffffffffffffffffffffffffffffffffffffffff1916908160001a9053505050505b915091565b6000835182846104b29190610660565b11156104bd57600080fd5b818360208601012090509392505050565b600073ffffffffffffffffffffffffffffffffffffffff82169050919050565b60006104f9826104ce565b9050919050565b610509816104ee565b82525050565b60006020820190506105246000830184610500565b92915050565b6000819050919050565b61053d8161052a565b82525050565b60006020820190506105586000830184610534565b92915050565b600080fd5b600061056e826104ee565b9050919050565b61057e81610563565b811461058957600080fd5b50565b60008151905061059b81610575565b92915050565b6000602082840312156105b7576105b661055e565b5b60006105c58482850161058c565b91505092915050565b6105d7816104ee565b81146105e257600080fd5b50565b6000815190506105f4816105ce565b92915050565b6000602082840312156106105761060f61055e565b5b600061061e848285016105e5565b91505092915050565b6000819050919050565b7f4e487b7100000000000000000000000000000000000000000000000000000000600052601160045260246000fd5b600061066b82610627565b915061067683610627565b925082820190508082111561068e5761068d610631565b5b92915050565b7f4e487b7100000000000000000000000000000000000000000000000000000000600052604160045260246000fd5b7f4e487b7100000000000000000000000000000000000000000000000000000000600052603260045260246000fd5b6000819050919050565b61070d6107088261052a565b6106f2565b82525050565b600061071f82856106fc565b60208201915061072f82846106fc565b602082019150819050939250505056fea26469706673582212205aa6888b9d7db6e8a8f3cc7d6254d5e0392360ba326307bb4544f124972cff4564736f6c63430008120033",
					"opcodes": "PUSH1 0x80 PUSH1 0x40 MSTORE PUSH15 0xC2E074EC69A0DFB2997BA6C7D2E1E PUSH1 0x0 DUP1 PUSH2 0x100 EXP DUP2 SLOAD DUP2 PUSH20 0xFFFFFFFFFFFFFFFFFFFFFFFFFFFFFFFFFFFFFFFF MUL NOT AND SWAP1 DUP4 PUSH20 0xFFFFFFFFFFFFFFFFFFFFFFFFFFFFFFFFFFFFFFFF AND MUL OR SWAP1 SSTORE POP CALLVALUE DUP1 ISZERO PUSH2 0x5F JUMPI PUSH1 0x0 DUP1 REVERT JUMPDEST POP PUSH2 0x775 DUP1 PUSH2 0x6F PUSH1 0x0 CODECOPY PUSH1 0x0 RETURN INVALID PUSH1 0x80 PUSH1 0x40 MSTORE CALLVALUE DUP1 ISZERO PUSH2 0x10 JUMPI PUSH1 0x0 DUP1 REVERT JUMPDEST POP PUSH1 0x4 CALLDATASIZE LT PUSH2 0x2B JUMPI PUSH1 0x0 CALLDATALOAD PUSH1 0xE0 SHR DUP1 PUSH4 0x2810E1D6 EQ PUSH2 0x30 JUMPI JUMPDEST PUSH1 0x0 DUP1 REVERT JUMPDEST PUSH2 0x38 PUSH2 0x4E JUMP JUMPDEST PUSH1 0x40 MLOAD PUSH2 0x45 SWAP2 SWAP1 PUSH2 0x50F JUMP JUMPDEST PUSH1 0x40 MLOAD DUP1 SWAP2 SUB SWAP1 RETURN JUMPDEST PUSH1 0x0 DUP1 PUSH2 0x8F PUSH1 0x40 MLOAD DUP1 PUSH1 0x40 ADD PUSH1 0x40 MSTORE DUP1 PUSH1 0xB DUP2 MSTORE PUSH1 0x20 ADD PUSH32 0x766974616C696B2E657468000000000000000000000000000000000000000000 DUP2 MSTORE POP PUSH2 0x1B2 JUMP JUMPDEST SWAP2 POP POP PUSH1 0x0 DUP1 PUSH1 0x0 SWAP1 SLOAD SWAP1 PUSH2 0x100 EXP SWAP1 DIV PUSH20 0xFFFFFFFFFFFFFFFFFFFFFFFFFFFFFFFFFFFFFFFF AND PUSH20 0xFFFFFFFFFFFFFFFFFFFFFFFFFFFFFFFFFFFFFFFF AND PUSH4 0x178B8BF DUP4 PUSH1 0x40 MLOAD DUP3 PUSH4 0xFFFFFFFF AND PUSH1 0xE0 SHL DUP2 MSTORE PUSH1 0x4 ADD PUSH2 0xEE SWAP2 SWAP1 PUSH2 0x543 JUMP JUMPDEST PUSH1 0x20 PUSH1 0x40 MLOAD DUP1 DUP4 SUB DUP2 DUP7 GAS STATICCALL ISZERO DUP1 ISZERO PUSH2 0x10B JUMPI RETURNDATASIZE PUSH1 0x0 DUP1 RETURNDATACOPY RETURNDATASIZE PUSH1 0x0 REVERT JUMPDEST POP POP POP POP PUSH1 0x40 MLOAD RETURNDATASIZE PUSH1 0x1F NOT PUSH1 0x1F DUP3 ADD AND DUP3 ADD DUP1 PUSH1 0x40 MSTORE POP DUP2 ADD SWAP1 PUSH2 0x12F SWAP2 SWAP1 PUSH2 0x5A1 JUMP JUMPDEST SWAP1 POP DUP1 PUSH20 0xFFFFFFFFFFFFFFFFFFFFFFFFFFFFFFFFFFFFFFFF AND PUSH4 0x3B3B57DE DUP4 PUSH1 0x40 MLOAD DUP3 PUSH4 0xFFFFFFFF AND PUSH1 0xE0 SHL DUP2 MSTORE PUSH1 0x4 ADD PUSH2 0x16A SWAP2 SWAP1 PUSH2 0x543 JUMP JUMPDEST PUSH1 0x20 PUSH1 0x40 MLOAD DUP1 DUP4 SUB DUP2 DUP7 GAS STATICCALL ISZERO DUP1 ISZERO PUSH2 0x187 JUMPI RETURNDATASIZE PUSH1 0x0 DUP1 RETURNDATACOPY RETURNDATASIZE PUSH1 0x0 REVERT JUMPDEST POP POP POP POP PUSH1 0x40 MLOAD RETURNDATASIZE PUSH1 0x1F NOT PUSH1 0x1F DUP3 ADD AND DUP3 ADD DUP1 PUSH1 0x40 MSTORE POP DUP2 ADD SWAP1 PUSH2 0x1AB SWAP2 SWAP1 PUSH2 0x5FA JUMP JUMPDEST SWAP3 POP POP POP SWAP1 JUMP JUMPDEST PUSH1 0x60 PUSH1 0x0 DUP1 PUSH1 0x0 SWAP1 POP PUSH1 0x0 DUP5 SWAP1 POP PUSH1 0x0 DUP2 MLOAD SWAP1 POP PUSH1 0x2 DUP2 PUSH2 0x1D3 SWAP2 SWAP1 PUSH2 0x660 JUMP JUMPDEST PUSH8 0xFFFFFFFFFFFFFFFF DUP2 GT ISZERO PUSH2 0x1EC JUMPI PUSH2 0x1EB PUSH2 0x694 JUMP JUMPDEST JUMPDEST PUSH1 0x40 MLOAD SWAP1 DUP1 DUP3 MSTORE DUP1 PUSH1 0x1F ADD PUSH1 0x1F NOT AND PUSH1 0x20 ADD DUP3 ADD PUSH1 0x40 MSTORE DUP1 ISZERO PUSH2 0x21E JUMPI DUP2 PUSH1 0x20 ADD PUSH1 0x1 DUP3 MUL DUP1 CALLDATASIZE DUP4 CALLDATACOPY DUP1 DUP3 ADD SWAP2 POP POP SWAP1 POP JUMPDEST POP SWAP5 POP PUSH1 0x0 DUP1 SHL SWAP4 POP PUSH1 0x0 DUP2 SUB PUSH2 0x27F JUMPI PUSH1 0x0 PUSH1 0xF8 SHL DUP6 PUSH1 0x0 DUP2 MLOAD DUP2 LT PUSH2 0x248 JUMPI PUSH2 0x247 PUSH2 0x6C3 JUMP JUMPDEST JUMPDEST PUSH1 0x20 ADD ADD SWAP1 PUSH31 0xFFFFFFFFFFFFFFFFFFFFFFFFFFFFFFFFFFFFFFFFFFFFFFFFFFFFFFFFFFFFFF NOT AND SWAP1 DUP2 PUSH1 0x0 BYTE SWAP1 MSTORE8 POP POP POP POP PUSH2 0x49D JUMP JUMPDEST PUSH1 0x0 PUSH1 0x1 DUP3 SUB SWAP1 POP JUMPDEST PUSH1 0x0 DUP2 LT PUSH2 0x40E JUMPI PUSH32 0x2E00000000000000000000000000000000000000000000000000000000000000 DUP4 DUP3 DUP2 MLOAD DUP2 LT PUSH2 0x2C4 JUMPI PUSH2 0x2C3 PUSH2 0x6C3 JUMP JUMPDEST JUMPDEST PUSH1 0x20 ADD ADD MLOAD PUSH1 0xF8 SHR PUSH1 0xF8 SHL PUSH31 0xFFFFFFFFFFFFFFFFFFFFFFFFFFFFFFFFFFFFFFFFFFFFFFFFFFFFFFFFFFFFFF NOT AND SUB PUSH2 0x38D JUMPI DUP4 PUSH1 0xF8 SHL DUP7 PUSH1 0x1 DUP4 ADD DUP2 MLOAD DUP2 LT PUSH2 0x310 JUMPI PUSH2 0x30F PUSH2 0x6C3 JUMP JUMPDEST JUMPDEST PUSH1 0x20 ADD ADD SWAP1 PUSH31 0xFFFFFFFFFFFFFFFFFFFFFFFFFFFFFFFFFFFFFFFFFFFFFFFFFFFFFFFFFFFFFF NOT AND SWAP1 DUP2 PUSH1 0x0 BYTE SWAP1 MSTORE8 POP DUP5 PUSH2 0x35B PUSH1 0x1 DUP4 ADD DUP7 PUSH1 0xFF AND DUP7 PUSH2 0x4A2 SWAP1 SWAP3 SWAP2 SWAP1 PUSH4 0xFFFFFFFF AND JUMP JUMPDEST PUSH1 0x40 MLOAD PUSH1 0x20 ADD PUSH2 0x36C SWAP3 SWAP2 SWAP1 PUSH2 0x713 JUMP JUMPDEST PUSH1 0x40 MLOAD PUSH1 0x20 DUP2 DUP4 SUB SUB DUP2 MSTORE SWAP1 PUSH1 0x40 MSTORE DUP1 MLOAD SWAP1 PUSH1 0x20 ADD KECCAK256 SWAP5 POP PUSH1 0x0 SWAP4 POP PUSH2 0x3F7 JUMP JUMPDEST PUSH1 0x1 DUP5 ADD SWAP4 POP DUP3 DUP2 DUP2 MLOAD DUP2 LT PUSH2 0x3A6 JUMPI PUSH2 0x3A5 PUSH2 0x6C3 JUMP JUMPDEST JUMPDEST PUSH1 0x20 ADD ADD MLOAD PUSH1 0xF8 SHR PUSH1 0xF8 SHL DUP7 PUSH1 0x1 DUP4 ADD DUP2 MLOAD DUP2 LT PUSH2 0x3C7 JUMPI PUSH2 0x3C6 PUSH2 0x6C3 JUMP JUMPDEST JUMPDEST PUSH1 0x20 ADD ADD SWAP1 PUSH31 0xFFFFFFFFFFFFFFFFFFFFFFFFFFFFFFFFFFFFFFFFFFFFFFFFFFFFFFFFFFFFFF NOT AND SWAP1 DUP2 PUSH1 0x0 BYTE SWAP1 MSTORE8 POP JUMPDEST PUSH1 0x0 DUP2 SUB ISZERO PUSH2 0x40E JUMPI DUP1 DUP1 PUSH1 0x1 SWAP1 SUB SWAP2 POP POP PUSH2 0x288 JUMP JUMPDEST POP DUP4 PUSH2 0x429 PUSH1 0x0 DUP6 PUSH1 0xFF AND DUP6 PUSH2 0x4A2 SWAP1 SWAP3 SWAP2 SWAP1 PUSH4 0xFFFFFFFF AND JUMP JUMPDEST PUSH1 0x40 MLOAD PUSH1 0x20 ADD PUSH2 0x43A SWAP3 SWAP2 SWAP1 PUSH2 0x713 JUMP JUMPDEST PUSH1 0x40 MLOAD PUSH1 0x20 DUP2 DUP4 SUB SUB DUP2 MSTORE SWAP1 PUSH1 0x40 MSTORE DUP1 MLOAD SWAP1 PUSH1 0x20 ADD KECCAK256 SWAP4 POP DUP3 PUSH1 0xF8 SHL DUP6 PUSH1 0x0 DUP2 MLOAD DUP2 LT PUSH2 0x46A JUMPI PUSH2 0x469 PUSH2 0x6C3 JUMP JUMPDEST JUMPDEST PUSH1 0x20 ADD ADD SWAP1 PUSH31 0xFFFFFFFFFFFFFFFFFFFFFFFFFFFFFFFFFFFFFFFFFFFFFFFFFFFFFFFFFFFFFF NOT AND SWAP1 DUP2 PUSH1 0x0 BYTE SWAP1 MSTORE8 POP POP POP POP JUMPDEST SWAP2 POP SWAP2 JUMP JUMPDEST PUSH1 0x0 DUP4 MLOAD DUP3 DUP5 PUSH2 0x4B2 SWAP2 SWAP1 PUSH2 0x660 JUMP JUMPDEST GT ISZERO PUSH2 0x4BD JUMPI PUSH1 0x0 DUP1 REVERT JUMPDEST DUP2 DUP4 PUSH1 0x20 DUP7 ADD ADD KECCAK256 SWAP1 POP SWAP4 SWAP3 POP POP POP JUMP JUMPDEST PUSH1 0x0 PUSH20 0xFFFFFFFFFFFFFFFFFFFFFFFFFFFFFFFFFFFFFFFF DUP3 AND SWAP1 POP SWAP2 SWAP1 POP JUMP JUMPDEST PUSH1 0x0 PUSH2 0x4F9 DUP3 PUSH2 0x4CE JUMP JUMPDEST SWAP1 POP SWAP2 SWAP1 POP JUMP JUMPDEST PUSH2 0x509 DUP2 PUSH2 0x4EE JUMP JUMPDEST DUP3 MSTORE POP POP JUMP JUMPDEST PUSH1 0x0 PUSH1 0x20 DUP3 ADD SWAP1 POP PUSH2 0x524 PUSH1 0x0 DUP4 ADD DUP5 PUSH2 0x500 JUMP JUMPDEST SWAP3 SWAP2 POP POP JUMP JUMPDEST PUSH1 0x0 DUP2 SWAP1 POP SWAP2 SWAP1 POP JUMP JUMPDEST PUSH2 0x53D DUP2 PUSH2 0x52A JUMP JUMPDEST DUP3 MSTORE POP POP JUMP JUMPDEST PUSH1 0x0 PUSH1 0x20 DUP3 ADD SWAP1 POP PUSH2 0x558 PUSH1 0x0 DUP4 ADD DUP5 PUSH2 0x534 JUMP JUMPDEST SWAP3 SWAP2 POP POP JUMP JUMPDEST PUSH1 0x0 DUP1 REVERT JUMPDEST PUSH1 0x0 PUSH2 0x56E DUP3 PUSH2 0x4EE JUMP JUMPDEST SWAP1 POP SWAP2 SWAP1 POP JUMP JUMPDEST PUSH2 0x57E DUP2 PUSH2 0x563 JUMP JUMPDEST DUP2 EQ PUSH2 0x589 JUMPI PUSH1 0x0 DUP1 REVERT JUMPDEST POP JUMP JUMPDEST PUSH1 0x0 DUP2 MLOAD SWAP1 POP PUSH2 0x59B DUP2 PUSH2 0x575 JUMP JUMPDEST SWAP3 SWAP2 POP POP JUMP JUMPDEST PUSH1 0x0 PUSH1 0x20 DUP3 DUP5 SUB SLT ISZERO PUSH2 0x5B7 JUMPI PUSH2 0x5B6 PUSH2 0x55E JUMP JUMPDEST JUMPDEST PUSH1 0x0 PUSH2 0x5C5 DUP5 DUP3 DUP6 ADD PUSH2 0x58C JUMP JUMPDEST SWAP2 POP POP SWAP3 SWAP2 POP POP JUMP JUMPDEST PUSH2 0x5D7 DUP2 PUSH2 0x4EE JUMP JUMPDEST DUP2 EQ PUSH2 0x5E2 JUMPI PUSH1 0x0 DUP1 REVERT JUMPDEST POP JUMP JUMPDEST PUSH1 0x0 DUP2 MLOAD SWAP1 POP PUSH2 0x5F4 DUP2 PUSH2 0x5CE JUMP JUMPDEST SWAP3 SWAP2 POP POP JUMP JUMPDEST PUSH1 0x0 PUSH1 0x20 DUP3 DUP5 SUB SLT ISZERO PUSH2 0x610 JUMPI PUSH2 0x60F PUSH2 0x55E JUMP JUMPDEST JUMPDEST PUSH1 0x0 PUSH2 0x61E DUP5 DUP3 DUP6 ADD PUSH2 0x5E5 JUMP JUMPDEST SWAP2 POP POP SWAP3 SWAP2 POP POP JUMP JUMPDEST PUSH1 0x0 DUP2 SWAP1 POP SWAP2 SWAP1 POP JUMP JUMPDEST PUSH32 0x4E487B7100000000000000000000000000000000000000000000000000000000 PUSH1 0x0 MSTORE PUSH1 0x11 PUSH1 0x4 MSTORE PUSH1 0x24 PUSH1 0x0 REVERT JUMPDEST PUSH1 0x0 PUSH2 0x66B DUP3 PUSH2 0x627 JUMP JUMPDEST SWAP2 POP PUSH2 0x676 DUP4 PUSH2 0x627 JUMP JUMPDEST SWAP3 POP DUP3 DUP3 ADD SWAP1 POP DUP1 DUP3 GT ISZERO PUSH2 0x68E JUMPI PUSH2 0x68D PUSH2 0x631 JUMP JUMPDEST JUMPDEST SWAP3 SWAP2 POP POP JUMP JUMPDEST PUSH32 0x4E487B7100000000000000000000000000000000000000000000000000000000 PUSH1 0x0 MSTORE PUSH1 0x41 PUSH1 0x4 MSTORE PUSH1 0x24 PUSH1 0x0 REVERT JUMPDEST PUSH32 0x4E487B7100000000000000000000000000000000000000000000000000000000 PUSH1 0x0 MSTORE PUSH1 0x32 PUSH1 0x4 MSTORE PUSH1 0x24 PUSH1 0x0 REVERT JUMPDEST PUSH1 0x0 DUP2 SWAP1 POP SWAP2 SWAP1 POP JUMP JUMPDEST PUSH2 0x70D PUSH2 0x708 DUP3 PUSH2 0x52A JUMP JUMPDEST PUSH2 0x6F2 JUMP JUMPDEST DUP3 MSTORE POP POP JUMP JUMPDEST PUSH1 0x0 PUSH2 0x71F DUP3 DUP6 PUSH2 0x6FC JUMP JUMPDEST PUSH1 0x20 DUP3 ADD SWAP2 POP PUSH2 0x72F DUP3 DUP5 PUSH2 0x6FC JUMP JUMPDEST PUSH1 0x20 DUP3 ADD SWAP2 POP DUP2 SWAP1 POP SWAP4 SWAP3 POP POP POP JUMP INVALID LOG2 PUSH5 0x6970667358 0x22 SLT KECCAK256 GAS 0xA6 DUP9 DUP12 SWAP14 PUSH30 0xB6E8A8F3CC7D6254D5E0392360BA326307BB4544F124972CFF4564736F6C PUSH4 0x43000812 STOP CALLER "
				},
				"gasEstimates": {
					"creation": {
						"codeDepositCost": "381800",
						"executionCost": "24685",
						"totalCost": "406485"
					},
					"external": {
						"resolve()": "infinite"
					}
				},
				"methodIdentifiers": {
					"resolve()": "2810e1d6"
				}
			},
			"storageLayout": {
				"storage": [
					{
						"astId": 330,
						"contract": "sample/contracts/custom/mainnet_ens.sol:MyResolver",
						"label": "ens",
						"offset": 0,
						"slot": "0",
						"type": "t_contract(ENS)316"
					}
				],
				"types": {
					"t_contract(ENS)316": {
						"encoding": "inplace",
						"label": "contract ENS",
						"numberOfBytes": "20"
					}
				}
			},
			"userdoc": {
				"kind": "user",
				"methods": {},
				"version": 1
			}
		}
	}
}